01REMESSA01COBRANCA       43720017765                                      341BANCO ITAU SA  260308                                                                                                                                                                                                                                                                                                      000001
